:020000040800F2
:1000000000000120512B00083D2900084529000867
:100010004D290008552900085D290008000000004E
:10002000000000000000000000000000652900083A
:100030007329000800000000812900088F290008AA
:10004000A12B0008A12B0008A12B0008A12B000860
:10005000A12B0008A12B0008A12B0008A12B000850
:10006000A12B0008A12B0008A12B0008A12B000840
:10007000A12B0008A12B0008A12B0008A12B000830
:10008000A12B0008A12B0008A12B000800000000F4
:10009000000000000000000000000000A12B00088C
:1000A000A12B0008A12B0008A12B0008A12B000800
:1000B000A12B0008A12B0008A12B0008A12B0008F0
:1000C000A12B0008A12B0008A12B0008A12B0008E0
:1000D000A12B0008A12B0008A12B000800000000A4
:1000E000A12B0008A12B0008A12B00080000000094
:1000F000000000000000000000000000A12B00082C
:1001000000000000A12B0008A12B0008A12B000873
:1001100000000000000000000000000000000000DF
:10012000A12B0008A12B0008A12B0008A12B00087F
:10013000A12B0008000000000000000000000000EB
:10014000000000000000000000000000A12B0008DB
:10015000A12B0008A12B0008A12B0008A12B00084F
:10016000A12B0008A12B00080000000000000000E7
:10017000000000000000000000000000000000007F
:1001800000000000A12B000800000000000000009B
:04019000A12B000897
:1001A00010B5054C237833B9044B13B10448AFF3B1
:1001B00000800123237010BD7400002000000000A7
:1001C000343F000808B5034B1BB103490348AFF3A4
:1001D000008008BD0000000078000020343F0008C7
:1001E000034613F8012B002AFBD1181A0138704777
:1001F00001F0FF01102A2BDB10F0070F08D010F8D8
:10020000013B013A8B422DD010F0070F42B3F6D1DB
:10021000F0B441EA012141EA014122F007047FF0F4
:1002200000070023F0E80256083C85EA010586EA4B
:10023000010685FA47F5A3FA87F586FA47F6A5FA87
:1002400087F68EB9EED1F0BC01F0FF0102F0070293
:1002500032B110F8013B013A83EA010313B1F8D13E
:100260000020704701387047002D06BF354603381F
:10027000073815F0010F07D1013015F4807F02BF58
:10028000013015F4C03F0130F0BC0138704700BFA9
:1002900080B582B000AF0023FB7100F079FA97F9C6
:1002A0000730184600F0FAF80023BB71FB797B7128
:1002B0000821012000F03EFA0346002B0DD000F08B
:1002C000BDFA97F907300133002B03F00103B8BFE3
:1002D0005B42FB710123BB7115E00621012000F098
:1002E00029FA0346002B0ED000F0A8FA97F9073040
:1002F000002B04D0FB79013BDBB25BB200E00123B1
:10030000FB710123BB71BB79002B07D097F9072044
:1003100097F905301146184600F036F907210120FB
:1003200000F008FA0346002B16D000F090FA642083
:1003300000F0C2FE97F90730002B02D101F07EFCDD
:1003400005E097F90730012B01D100F003FF97F981
:100350000730184600F0A2F8322000F0ADFEA3E707
:1003600090B58DB002AF03460A46FB711346BB71D0
:100370006E233B842023FB830F23BB8308237B83D3
:1003800012233B837A8B3B8B13449AB2FB8B5B002B
:100390009BB213449AB2BB8B1344FB82FB8AC3F11A
:1003A000A003DA0F13445B10BB82BA8A7B8B134421
:1003B0009AB23B8B13449AB2FB7999B2F88BBB8B00
:1003C00003449BB211FB03F39BB213447B823B8C2F
:1003D000C3F18003DA0F13445B103B82BB79002B1F
:1003E00009D04CF68023FB844FF6FB73BB844FF699
:1003F000FB737B8408E04DF2AA53FB8445F6062389
:10040000BB8445F606237B843B8AD8B27B8AD9B26B
:100410003B8CDAB2FB8BDCB2FB8C0093234600F002
:10042000F1FAFC8B3A8C798A388ABB8C009323468C
:1004300000F0C0F8BB79002B10D03B8A013398B292
:100440007B8A013399B23B8C023B9AB2FB8B023B15
:100450009BB245F60624009400F0ACF83B8A0A33C0
:10046000FB81FB8B083BDA0F13445B109AB27B8A4B
:100470001344BB81FB79084A52F823207C8CB9894C
:10048000F88901230193FB8C0093234600F0E0F8E8
:1004900000BF2C37BD4690BD0000002080B58CB059
:1004A00002AF0346FB714FF6DC730093A02380225A
:1004B0000021002000F0A6FA45F60623009303234E
:1004C00080220021002000F09DFA45F606230093CB
:1004D000032380229D21002000F094FA20237B84B6
:1004E00008233B841223FB830F23BB833A8CFB8BB3
:1004F00013449AB27B8C5B009BB213449AB2BB8BC1
:1005000013447B837B8BC3F1A003DA0F13445B108E
:100510003B831C4B7B617869FFF762FE03469BB20D
:10052000DB007B827B8AC3F18003DA0F13445B100C
:100530003B823B8BFB81F989388A012301934FF67B
:10054000DC7300934CF680237A6900F081F8002375
:100550007B620FE07B6AD8B297F907307A6A9A42D9
:100560000CBF01230023DBB21946FFF7F9FE7B6ABB
:1005700001337B627B6A012BECDD00BF00BF2837B3
:10058000BD4680BD603F000880B582B000AF034625
:100590000A46FB711346BB71FB7900211846FFF731
:1005A000DFFEBB7901211846FFF7DAFE00BF0837EE
:1005B000BD4680BD90B585B002AF044608461146E1
:1005C0001A462346FB800346BB800B467B801346BE
:1005D0003B80FB88D8B2BB88D9B27B88DAB23B8B30
:1005E0000093012300F00EFAFB88D8B2BB88DAB280
:1005F0003B88DBB21344DBB2013BD9B27B88DAB271
:100600003B8B0093012300F0FDF9FB88D8B2BB8837
:10061000D9B23B88DAB23B8B00931346012200F03B
:10062000F1F9FB88DAB27B88DBB21344DBB2013B21
:10063000D8B2BB88D9B23B88DAB23B8B0093134661
:10064000012200F0DFF900BF0C37BD4690BD00006D
:1006500080B58AB002AFBA601A460346FB810B46EA
:10066000BB811346FB8059E0BB681B781F2B4FD919
:10067000BB681B787A2B4BD8BB681B78203BDB0010
:100680001A462B4B1344BB610023FB773DE0FB7FF5
:10069000BA6913441B78FB750023BB772FE0FA7D02
:1006A000BB7F42FA03F303F00103002B10D0FB8958
:1006B000DAB2BB7F1344D8B2BB89DAB2FB7F1344F2
:1006C000D9B2FB8800930123012200F09BF913E0CB
:1006D00097F82C30002B0FD1FB89DAB2BB7F134483
:1006E000D8B2BB89DAB2FB7F1344D9B23B8D0093F9
:1006F0000123012200F086F9BB7F0133BB77BB7F6A
:10070000072BCCD9FB7F0133FB77FB7F072BBED9AF
:10071000FB890833FB81BB680133BB60BB681B7876
:10072000002BA1D100BF00BF2037BD4680BD00BF58
:10073000E03F000880B582B000AF03460A46FB7177
:100740001346BB71BA79FB791146184600F0F0FAEE
:100750000346012B17D1322000F0AEFCBA79FB79A9
:100760001146184600F0E4FA0346012B0BD100BFF6
:10077000BA79FB791146184600F0DAFA0346012BE4
:10078000F6D0012300E0002318460837BD4680BD9F
:1007900080B500AF01220A21012000F061F9002399
:1007A00000220A21012000F0AFF900BF80BD000047
:1007B00080B586B000AF03460A46FB801346BB8077
:1007C000FB88002B31D0FB881B4A92FBF3F33B6183
:1007D0003B69002B2BD0BB884FF47A7203FB02F2EB
:1007E0003B695B00B2FBF3F3FB6000237B6112E02B
:1007F00001220A21012000F0FDF9386900F07EFC99
:1008000000220A21012000F0F5F9386900F076FC99
:100810007B6901337B617A69FB689A42E8D30022E5
:100820000A21012000F0E6F902E000BF00E000BF6D
:100830001837BD4680BD00BF20A1070080B500AFBE
:1008400023214FF42F60FFF7B3FF00BF80BD80B5B9
:1008500000AF50214FF4E160FFF7AAFF00BF80BD59
:1008600080B500AF01220021002000F0F9F800233C
:1008700000220021002000F047F901220121002080
:1008800000F0EEF8002300220121002000F03CF9E6
:1008900001220021002000F0ADF9642000F02EFCC0
:1008A00000220021002000F0A5F9012000F026FC24
:1008B00001220021002000F09DF9642000F01EFCC0
:1008C00000220021002000F095F9642000F016FCC1
:1008D00001220021002000F08DF9782000F0ECFBCF
:1008E000112000F021F80A2000F0E6FB3A2000F089
:1008F0001BF8052000F005F8292000F015F800BFCE
:1009000080BD80B582B000AF0346FB71012201219A
:10091000002000F06FF9FB799BB2184600F058FBFD
:1009200000BF0837BD4680BD80B582B000AF03462A
:10093000FB7100220121002000F05CF9FB799BB2E1
:10094000184600F045FB00BF0837BD4680BD90B596
:1009500083B000AF0446084611461A462346FB7191
:100960000346BB710B467B7113463B712A20FFF790
:10097000DBFF0020FFF7C5FFFB791846FFF7C1FF3B
:100980000020FFF7BEFFBB791846FFF7BAFF2B2008
:10099000FFF7CAFF0020FFF7B4FF7B791846FFF787
:1009A000B0FF0020FFF7ADFF3B791846FFF7A9FF26
:1009B0002C20FFF7B9FF00BF0C37BD4690BD80B5B6
:1009C00084B000AF03463960FB80FB881B0A9BB2F2
:1009D000FB72FB88BB720023FB600AE0FB7A1846BF
:1009E000FFF78FFFBB7A1846FFF78BFFFB680133D9
:1009F000FB60FA683B689A42F0D300BF00BF103733
:100A0000BD4680BD90B585B000AF0446084611468E
:100A10001A462346FB710346BB710B467B71134696
:100A20003B717B793A7902FB03F3FB60FA797B79BE
:100A30001344DBB2013BD9B2BA793B791344DBB240
:100A4000013BDBB2BA79F879FFF781FF3B8CF9689B
:100A50001846FFF7B4FF00BF1437BD4690BD000035
:100A600080B483B000AF0346FB710B46BB711346E5
:100A70007B71FB79002B08D1BB790D2B38D0BB796A
:100A80000E2B35D0BB790F2B32D0FB79012B08D13F
:100A9000BB79032B2ED0BB79042B2BD0BB79052B34
:100AA00028D0FB79022B27D8FB79164A52F823303D
:100AB0001A68BB795B00032101FA03F3DB43184694
:100AC000FB79104951F8233002401A60FB790D4A36
:100AD00052F823301A687979BB795B0001FA03F385
:100AE0001846FB79074951F8233002431A6004E0A5
:100AF00000BF02E000BF00E000BF0C37BD465DF85C
:100B0000047B70470800002090B482B000AF044618
:100B1000084611461A462346FB710346BB710B4635
:100B20007B7113463B71FB79002B08D1BB790D2BF0
:100B300056D0BB790E2B53D0BB790F2B50D0FB79FD
:100B4000012B08D1BB79032B4CD0BB79042B49D0A6
:100B5000BB79052B46D0FB79254A52F823305A68D9
:100B6000BB79012101FA03F3DB431846FB792049E5
:100B700051F8233002405A60FB791D4A52F8233065
:100B80005A687979BB7901FA03F31846FB79184959
:100B900051F8233002435A60FB79154A52F823304A
:100BA0009A68BB795B00032101FA03F3DB43184623
:100BB000FB790F4951F8233002409A60FB790C4AC7
:100BC00052F823309A683979BB795B0001FA03F354
:100BD0001846FB79064951F8233002439A6002E037
:100BE00000BF00E000BF0837BD4690BC704700BFA3
:100BF0000800002080B483B000AF0346FB710B46B1
:100C0000BB7113467B71FB79002B08D1BB790D2B8F
:100C100033D0BB790E2B30D0BB790F2B2DD0FB7985
:100C2000012B08D1BB79032B29D0BB79042B26D00B
:100C3000BB79052B23D0FB79144A52F823305A692B
:100C4000BB79012101FA03F3DB431846FB790F4915
:100C500051F8233002405A61FB790C4A52F8233094
:100C60005A697979BB7901FA03F31846FB79074988
:100C700051F8233002435A6102E000BF00E000BF98
:100C800000BF0C37BD465DF8047B704708000020AC
:100C900080B483B000AF0346FB710B46BB711346B3
:100CA0007B71FB79002B08D1BB790D2B35D0BB793B
:100CB0000E2B32D0BB790F2B2FD0FB79012B08D113
:100CC000BB79032B2BD0BB79042B28D0BB79052B08
:100CD00025D0FB79154A52F82330DA68BB795B00DE
:100CE000032101FA03F3DB431846FB790F4951F85E
:100CF00023300240DA60FB790C4A52F82330DA687C
:100D00007979BB795B0001FA03F31846FB7907494F
:100D100051F823300243DA6002E000BF00E000BF78
:100D200000BF0C37BD465DF8047B7047080000200B
:100D300080B485B000AF03460A46FB711346BB7111
:100D40000023FB73FB79002B08D1BB790D2B1ED040
:100D5000BB790E2B1BD0BB790F2B18D0FB79012B45
:100D600008D1BB79032B14D0BB79042B11D0BB79EC
:100D7000052B0ED0FB790B4A52F823301A69BB7948
:100D800022FA03F3DBB203F00103FB7302E000BFBE
:100D900000E000BFFB7B18461437BD465DF8047BBE
:100DA000704700BF0800002080B483B000AF034646
:100DB000FB710B46BB7113467B71FB79002B08D18D
:100DC000BB790D2B62D0BB790E2B5FD0BB790F2B7B
:100DD0005CD0FB79012B08D1BB79032B58D0BB79B0
:100DE000042B55D0BB79052B52D0BB79072B23D8C8
:100DF000FB792B4A52F823301A6ABB799B000F21EA
:100E000001FA03F3DB431846FB79254951F82330F7
:100E100002401A62FB79224A52F823301A6A797921
:100E2000BB799B0001FA03F31846FB791C4951F882
:100E3000233002431A622CE0BB790F2B29D8BB79EF
:100E4000083BBB71FB79164A52F823305A6ABB79CA
:100E50009B000F2101FA03F3DB431846FB7910498D
:100E600051F8233002405A62FB790D4A52F8233080
:100E70005A6A7979BB799B0001FA03F31846FB792A
:100E8000074951F8233002435A6202E000BF00E0F4
:100E900000BF00BF0C37BD465DF8047B704700BF44
:100EA0000800002080B400AF0E4B1B680D4A43F0D1
:100EB0000103136000BF0B4B1B685B0803F00103C9
:100EC000002BF8D0074B9B68064A03F0030393609E
:100ED000044B044A9B68936000BFBD465DF8047BE9
:100EE000704700BF0038024080B483B000AF0346B3
:100EF0003960FB713B681F2B3AD8FB79032B37D83D
:100F000001A252F823F000BF190F00082F0F0008AC
:100F1000450F00085B0F0008184B1B6B01213A6856
:100F200001FA02F21146154A0B43136320E0134BFA
:100F30005B6B01213A6801FA02F211460F4A0B433A
:100F4000536315E00D4B1B6C01213A6801FA02F264
:100F500011460A4A0B4313640AE0084B5B6C0121FB
:100F60003A6801FA02F21146044A0B43536400BF87
:100F700000BF0C37BD465DF8047B70470038024067
:100F800080B400AF114B1B68104A43F40073136028
:100F90000E4B1B680D4A43F4807313600B4B1B68A8
:100FA0000A4A43F004031360084B1B68074A43F0E6
:100FB00002031360054B1B68044A43F040031360AF
:100FC00000BFBD465DF8047B704700BF00300140A4
:100FD00080B483B000AF0346FB8000BF0C4B9B681E
:100FE0005B0803F00103002BF8D0094AFB88D360AB
:100FF00000BF074B9B6803F00103002BF9D0044BA3
:10100000DB689BB218460C37BD465DF8047B704721
:101010000030014080B400AF084B1B68074A23F042
:1010200004031360054B1B68044A23F0010313609B
:1010300000BFBD465DF8047B704700BF10E000E0D4
:1010400080B483B000AF7860084A7B685360074B78
:1010500000229A60054B1B68044A43F001031360A9
:1010600000BF0C37BD465DF8047B704710E000E020
:1010700080B483B000AF0346FB71064B1A68FB795E
:101080005B00044913430B6000BF0C37BD465DF89D
:10109000047B704710E000E080B400AF054B1B6894
:1010A0001B0CDBB203F00103DBB21846BD465DF852
:1010B000047B704710E000E080B582B000AF78603C
:1010C0000020FFF7D5FF7B684FF4FA6202FB03F3C1
:1010D0001846FFF7B5FF00BFFFF7DEFF0346002B02
:1010E000FAD0054B1B68044A23F00103136000BFCC
:1010F0000837BD4680BD00BF10E000E080B582B07B
:1011000000AF78600020FFF7B3FF7B685B001846F4
:10111000FFF796FF00BFFFF7BFFF0346002BFAD093
:10112000044B1B68034A23F00103136000BF083718
:10113000BD4680BD10E000E080B400AF044B1B68EA
:101140000133034A136000BFBD465DF8047B70475E
:101150009000002080B582B000AF00F075FB00F079
:101160009DFA00F033F94FF496737B60082101205B
:1011700000F0DEF90346002B04D000F0E5FA012070
:1011800000F0A6FB0621012000F0D2F90346002B57
:1011900004D000F0D9FA022000F09AFB00F0EAFB3C
:1011A0000346012B08D100F0E9FA00F07BF94FF477
:1011B0007A60FFF781FF1FE000F037F900F01AFDB9
:1011C0000346002B14D000F015FD03461A460C4BC5
:1011D000A3FB021399080B469B000B44D31A9BB246
:1011E000002B05D17B68642B02D97B68143B7B60A4
:1011F0007868FFF761FFB9E70837BD4680BD00BFDB
:10120000CDCCCCCC90B587B002AF0346FB710B467A
:10121000BB711346BB80FB799BB21A469200134404
:101220005B00FB81BB799BB21A46920013445B00C2
:101230009BB21433BB810A23FB72FB7A042B0BD8BD
:10124000FB89D8B2BB89D9B2FC7AFA7ABB88009301
:101250002346FFF7D7FB24E0FB7A9B08BB72BB7ADF
:101260005B00DBB2FA7AD31A7B72FB89DAB2BB7A03
:101270001344D8B2BB89D9B2FC7A7A7ABB8800937E
:101280002346FFF7BFFBFB89D8B2BB89DAB2BB7A32
:101290001344D9B27C7AFA7ABB8800932346FFF7CD
:1012A000B1FB1437BD4690BD90B587B002AF034681
:1012B000FB710B46BB711346BB80BA88B979FB79C9
:1012C0001846FFF79FFFFB799BB21A469200134422
:1012D0005B00FB81BB799BB21A46920013445B0012
:1012E0009BB21433BB810A23FB72FB7A062B1FD9F6
:1012F000FB7A032B03D9FB7A9B08DBB200E00123C6
:10130000BB72BB7A7B72FA7ABB7AD31ADA0F1344B8
:101310005B103B72FB89DAB23B7A1344D8B2BB89CB
:10132000D9B27B7ABA7A4FF494640094FFF76AFBDF
:1013300000BF1437BD4690BD80B586B002AF0346EE
:101340000A46FB711346BB71FB799BB21A469200A9
:1013500013445B00FB81BB799BB21A469200134495
:101360005B009BB21433BB81FB89D8B2BB89D9B275
:10137000002300930A230A22FFF744FB00BF103723
:10138000BD4680BD80B586B002AF00230093132315
:10139000802200210020FFF735FB00F02BFC0346E4
:1013A0001A463B460849184601F010FD3A4602230A
:1013B00000934FF6E07305210A2000F0E7F800BF24
:1013C0001037BD4680BD00BF6C3F000880B584B0BB
:1013D00002AF00230093A023802200210020FFF70A
:1013E00011FBFFF7CFFF00F0C3FB0346BB8097F96B
:1013F0000430DBB297F90520D1B24FF4FC621846F5
:10140000FFF700FF00F0E0FB03463B8097F9003058
:10141000DBB297F90120D1B24FF478421846FFF7BA
:1014200043FF00BF0837BD4680BD80B584B000AF24
:1014300000F09EFB0346BB8197F90C30DBB297F9B5
:101440000D20D1B24FF4FC621846FFF7DBFE00F02E
:10145000DDFB0346002B0ED100F0A0FB03463B81D1
:1014600097F90830DBB297F90920D2B21146184635
:10147000FFF762FF12E000F070F9FFF783FF00F062
:10148000A3FB0346BB8097F90430DBB297F9052034
:10149000D1B24FF478421846FFF706FF00BF10376D
:1014A000BD4680BD80B58CB002AF48F210430093BA
:1014B0006423802228210020FFF7A4FA022300934E
:1014C0004FF47843174A32210F2000F05FF800F004
:1014D00091FB03461A4607F114031349184601F01D
:1014E00075FC07F11402022300934FF6E0735021BC
:1014F000142000F04BF800F095FB03461A463B46DB
:101500000A49184601F062FC3A46022300934FF65E
:10151000FF736921142000F039F800BF2837BD4659
:1015200080BD00BF783F00086C3F0008843F000882
:1015300080B582B000AF03460A46FB711346BB710B
:10154000BA79FB7911461846FFF7F2FB0346012BE7
:1015500017D13220FFF7B0FDBA79FB791146184652
:10156000FFF7E6FB0346012B0BD100BFBA79FB79ED
:1015700011461846FFF7DCFB0346012BF6D001238A
:1015800000E0002318460837BD4680BD90B589B0FD
:1015900002AF3A601A460346FB710B46BB71134615
:1015A000BB8070E03B681B781F2B03D93B681B781E
:1015B0005A2B03D93B6801333B6064E03B681B78DE
:1015C000A3F1200213469B0013441A46324B1344E6
:1015D0003B610023FB7533E0FB7D3A6913441B78C4
:1015E000FB730023BB7525E0FA7BBB7D42FA03F356
:1015F00003F00103002B1AD0FA7D97F8283012FB74
:1016000003F3DAB2FB791344D8B2BA7D97F82830E5
:1016100012FB03F3DAB2BB791344D9B297F828402E
:1016200097F82820BB8800932346FFF7EBF9BB7D92
:101630000133BB75BB7D062BD6D9FB7D0133FB7512
:10164000FB7D042BC8D997F828301A465200134462
:101650005B00DAB2FB791344FB71F97997F8282023
:10166000134692009B1A5B008033994208DD0023E9
:10167000FB7197F82830DB00DAB2BB791344BB71F9
:101680003B6801333B603B681B78002B8AD100BF6D
:1016900000BF1C37BD4690BDB841000880B500AF03
:1016A00001220A210120FFF7DBF9002300220A2191
:1016B0000120FFF729FA00BF80BD000080B586B089
:1016C00000AF03460A46FB801346BB80FB88002B15
:1016D00031D0FB881B4A92FBF3F33B613B69002B43
:1016E0002BD0BB884FF47A7203FB02F23B695B009C
:1016F000B2FBF3F3FB6000237B6112E001220A21BD
:101700000120FFF777FA3869FFF7F8FC00220A2179
:101710000120FFF76FFA3869FFF7F0FC7B690133AE
:101720007B617A69FB689A42E8D300220A21012092
:10173000FFF760FA02E000BF00E000BF1837BD46C7
:1017400080BD00BF20A1070080B500AF282140F672
:10175000C410FFF7B3FF00BF80BD80B500AF6421A8
:101760004FF47A70FFF7AAFF3220FFF7A5FC64213F
:1017700040F2DC50FFF7A2FF00BF80BD80B500AF94
:101780004FF4FA714FF4C870FFF798FF00BF80BDA7
:1017900080B582B000AF0023FB7101F017FA02465A
:1017A000244B83FB02135910D317C91A0B465B0055
:1017B0000B449B00D11A4AB21F4B1A7001F006FA73
:1017C00002461E4B83FB02131344D910D317C91AC8
:1017D0000B46DB005B1A5B00D11A4AB2164B5A70FB
:1017E0000023BB8019E0BB88154A12F91320124B65
:1017F00093F900309A420DD1BB88114A5B00134423
:1018000093F901200C4B93F901309A4202D1012344
:10181000FB7107E0BB880133BB800A4B1B88BA8889
:101820009A42E0D3FB79002BB5D100BF00BF083747
:10183000BD4680BDABAAAA2AE801002093244992A4
:1018400094000020E401002080B500AF1A4B06226E
:101850001A70194B07225A70184B03221A80164B24
:1018600093F90030DBB2013BDBB25AB2124B9A70F3
:10187000114B93F90120104BDA700F4B93F90030A4
:10188000DBB2023BDBB25AB20B4B1A710A4B93F933
:101890000120094B5A710A4B00221A70094B002291
:1018A0001A80094B00221A70084B00221A70FFF7A9
:1018B0006FFF00BF80BD00BF94000020E401002046
:1018C000E6010020EA010020EC010020ED010020EB
:1018D00080B483B000AF0346FB71FB79012B1FD1AD
:1018E000234B1B78032B3DD801A252F823F000BFF5
:1018F0000919000801190008191900081119000830
:101900001B4B00221A702DE0194B03221A7029E09C
:10191000174B02221A7025E0154B01221A7021E0A4
:10192000FB79022B1ED1124B1B78032B1AD801A274
:1019300052F823F05D190008451900084D190008F8
:10194000551900080A4B02221A700BE0084B0322BB
:101950001A7007E0064B00221A7003E0044B0122C4
:101960001A7000BF00BF0C37BD465DF8047B70479E
:10197000E601002080B582B000AF744B1B78012BCC
:1019800001D10123DDE0724B1B88013B714A724992
:1019900031F8133013806E4B1B88013B9BB2FB80E8
:1019A00010E0B7F906305A1EB7F906306A496A489E
:1019B00030F8122021F81320B7F906309BB2013B12
:1019C0009BB2FB80B7F90630002BEADC624B3B6030
:1019D000624B1B78032B33D801A252F823F000BFCF
:1019E000051A0008F11900082D1A0008191A000834
:1019F0003B6893F90130DBB2013BDBB25AB23B6882
:101A00005A701DE03B6893F90030DBB20133DBB262
:101A10005AB23B681A7013E03B6893F90130DBB2AD
:101A20000133DBB25AB23B685A7009E03B6893F964
:101A30000030DBB2013BDBB25AB23B681A7000BF28
:101A40003B6893F900300B2B03DD3B6800221A70D2
:101A500007E03B6893F90030002B02DA3B680B2269
:101A60001A703B6893F901300D2B03DD3B680022AF
:101A70005A7007E03B6893F90130002B02DA3B68AB
:101A80000D225A700123BB8025E03B6893F90020AA
:101A9000BB88314911F913309A4219D13B6893F947
:101AA0000120BB882C495B000B4493F901309A421A
:101AB0000ED1264B01221A70294B1A88294B1B88FC
:101AC0009A4203D9264B1A88264B1A80012338E004
:101AD000BB880133BB801E4B1B88BA889A42D4D383
:101AE000214B00221A703B6893F900201F4B93F999
:101AF00000309A4224D13B6893F901201B4B93F9A3
:101B000001309A421CD1184B01221A70144B1B88C9
:101B100001339AB2124B1A800D4B1B88A72B0DD89C
:101B20000B4B1B8801339AB2094B1A80084B1B8858
:101B3000013B0949074A128821F81320FFF728FEC4
:101B4000002318460837BD4680BD00BFEC010020C9
:101B5000E4010020F001002094000020E6010020B4
:101B6000EA010020F2010020ED010020E801002040
:101B700080B483B000AF084B1B88BB8000233A7948
:101B800062F307037A7962F30F2318460C37BD46D8
:101B90005DF8047B704700BF9400002080B483B0E0
:101BA00000AF084B1B88BB8000233A7962F3070320
:101BB0007A7962F30F2318460C37BD465DF8047B33
:101BC000704700BFF001002080B483B000AF084B25
:101BD0001B88BB8000233A7962F307037A7962F3AA
:101BE0000F2318460C37BD465DF8047B704700BFD5
:101BF000E801002080B400AF034B1B881846BD46A7
:101C00005DF8047B704700BFEA01002080B400AF9C
:101C1000034B1B781846BD465DF8047B704700BF38
:101C2000ED01002080B400AF034B1B881846BD4671
:101C30005DF8047B704700BFF201002080B584B0DE
:101C400002AF00F0DBFB00230093A02380220021E1
:101C50000020FEF7D7FE00F06DFC00F054F900F014
:101C600097FA0023FB710023BB7100237B710023D3
:101C70003B71B979FB794FF6E072184600F0F1F943
:101C80007B79002B24D03B79002B18D17B79012B59
:101C900005D1012000F094FD00F018FC0DE07B79E7
:101CA000022B05D1022000F08BFD00F00FFC04E0B8
:101CB0007B79032B01D100F022FC01233B717B795E
:101CC000184600F0B1FA4FF47A60FFF7F5F9B9E081
:101CD0000721012000F0B9F80346002B2FD000F0B7
:101CE000E3FBBA79FB791146184600F0B9FD0346CB
:101CF000FB70B979FB790022184600F0B2F9FB7845
:101D0000002B05D0FA78B979FB79184600F028F94C
:101D1000BB790133BB71BB79022B09D90023BB719D
:101D2000FB790133FB71FB79022B01D90023FB7195
:101D3000B979FB794FF6E072184600F092F940F25B
:101D4000DC520721012000F0AEF80346002B20D022
:101D500000F074FD48F210430093A023802200217C
:101D60000020FEF74FFE9620FFF7A6F90023009310
:101D7000A023802200210020FEF744FE00F0C3F8DB
:101D800000F006FAB979FB794FF6E072184600F0D8
:101D900068F900F0FBFB0346BB70BB78012B24D134
:101DA0000621012000F051F80346002B1DD0BA791E
:101DB000FB791146184600F009FC0346002B11D0B0
:101DC00000F07BFBBA78B979FB79184600F0C8F8C7
:101DD00000F02EFC03467B717B79002B2DD100F0A7
:101DE000E1FB2AE000F09CFB27E0BB78022B25D129
:101DF0000821012000F029F80346002B1ED0BA79F3
:101E0000FB791146184600F0E1FB0346002B11D088
:101E100000F053FBBA78B979FB79184600F0A0F8C6
:101E200000F006FC03467B717B79002B06D100F0A5
:101E3000B9FB03E000F074FB00E000BF3220FFF7C5
:101E40003BF91DE70837BD4680BD80B582B000AFC5
:101E500003460A46FB711346BB71BA79FB791146FA
:101E60001846FEF765FF0346012B17D13220FFF716
:101E700023F9BA79FB7911461846FEF759FF034654
:101E8000012B0BD100BFBA79FB7911461846FEF73A
:101E90004FFF0346012BF6D0012300E00023184634
:101EA0000837BD4680BD80B582B000AF0346FB71E8
:101EB0000B46BB711346BB80BA79FB7911461846B5
:101EC000FEF736FF0346012B18D1BB881846FFF7F3
:101ED000F3F8BA79FB7911461846FEF729FF034655
:101EE000012B0BD100BFBA79FB7911461846FEF7DA
:101EF0001FFF0346012BF6D0012300E00023184604
:101F00000837BD4680BD80B584B002AF7823FB7131
:101F1000FB794FF6FF720092042214212A20FEF76B
:101F200071FDFB794FF6FF720092042214215220BA
:101F3000FEF768FDFA794FF6FF73009304233A2108
:101F40000420FEF75FFDFA794FF6FF730093042338
:101F500062210420FEF756FD00BF0837BD4680BD54
:101F600090B587B002AF0346FB710B46BB711346B9
:101F70007B71BB791A4692001344DB00DBB2093354
:101F8000BB73FB791A4692001344DB00DBB21933B2
:101F90007B731E233B730323FB727B79012B2DD1B3
:101FA0000023FB7325E0BA7BFB7B1344D8B27A7B1A
:101FB000FB7B1344D9B2FB7AFA7A4FF4784400944D
:101FC000FEF720FD3A7BFB7BD31ADAB2BB7B1344CE
:101FD000DBB2013BD8B27A7BFB7B1344D9B2FB7AEC
:101FE000FA7A4FF478440094FEF70CFDFB7B013342
:101FF000FB73FA7B3B7B9A42D5D32EE07B79022B95
:102000002BD1FB7A3A7B797BB87B1F240094FEF7B7
:10201000F9FC7A7B3B7B1344DAB2FB7AD31AD9B250
:10202000FB7A3A7BB87B1F240094FEF7EBFC3B7BEA
:10203000FA7A797BB87B1F240094FEF7E3FCBA7B25
:102040003B7B1344DAB2FB7AD31AD8B23B7BFA7AE1
:10205000797B1F240094FEF7D5FC00BF1437BD46E2
:1020600090BD90B587B002AF0346FB710B46BB71C4
:102070001346BB80BB791A4692001344DB00DBB2E7
:102080000433FB73FB791A4692001344DB00DBB286
:102090001433BB7302237B7303233B73BB88002B76
:1020A00018D1FA7B7B7B1344D8B2BA7B7B7B134479
:1020B000D9B27B7BC3F11403DBB25B00DAB27B7B6A
:1020C000C3F11403DBB25B00DBB200240094FEF723
:1020D00099FC59E0FA7B3B7B1344D8B2BA7B3B7B3B
:1020E0001344D9B23B7BC3F11403DBB25B00DAB219
:1020F0007C7BBB8800932346FEF784FCFA7B3B7B0A
:102100001344D8B2BA7B7B7BD31ADAB23B7BD31AA7
:10211000DBB22833D9B23B7BC3F11403DBB25B00E3
:10212000DAB27C7BBB8800932346FEF76BFCFA7B1C
:102130003B7B1344D8B2BA7B3B7B1344D9B23B7B85
:10214000C3F11403DBB25B00DCB27A7BBB88009383
:102150002346FEF757FCFA7B7B7BD31ADAB23B7B34
:10216000D31ADBB22833D8B2BA7B3B7B1344D9B243
:102170003B7BC3F11403DBB25B00DCB27A7BBB8830
:1021800000932346FEF73EFC00BF1437BD4690BDCA
:1021900080B584B002AF0023009312238022002177
:1021A0000020FEF72FFC022300934FF478431B4AD4
:1021B0000521052000F09AF8012000F023FB0346DA
:1021C0001A463B461649184600F000FE3A460223DE
:1021D00000934FF6FF7305211E2000F087F80223BD
:1021E00000931F230F4A05214E2000F07FF80220A4
:1021F00000F008FB03461A463B460949184600F022
:10220000E5FD3A46022300934FF6FF730521672050
:1022100000F06CF800BF0837BD4680BD903F000855
:10222000943F0008983F000890B58BB002AF03467A
:10223000FB7100230093A023802200210020FEF7E1
:10224000E1FBFB79012B09D1022300934FF4784382
:10225000214A32210C2000F049F817E0FB79022BCB
:1022600008D1022300931F231C4A32210C2000F0C6
:102270003DF80BE0FB79032B08D1022300934FF6C6
:10228000FF73174A3221232000F030F8012000F0BC
:10229000B9FA03461C46022000F0B4FA034607F1DF
:1022A0000C0022460F4900F091FD07F10C020223B9
:1022B00000934FF6E0735021192000F017F8012326
:1022C000009348F21043084A78210F2000F00EF8DE
:1022D00000BF2437BD4690BD9C3F0008AC3F0008BE
:1022E000BC3F0008C43F0008D03F000890B589B04B
:1022F00002AF3A601A460346FB710B46BB711346A8
:10230000BB8070E03B681B781F2B03D93B681B78B0
:102310005A2B03D93B6801333B6064E03B681B7870
:10232000A3F1200213469B0013441A46324B134478
:102330003B610023FB7533E0FB7D3A6913441B7856
:10234000FB730023BB7525E0FA7BBB7D42FA03F3E8
:1023500003F00103002B1AD0FA7D97F8283012FB06
:1023600003F3DAB2FB791344D8B2BA7D97F8283078
:1023700012FB03F3DAB2BB791344D9B297F82840C1
:1023800097F82820BB8800932346FEF73BFBBB7DD4
:102390000133BB75BB7D062BD6D9FB7D0133FB75A5
:1023A000FB7D042BC8D997F828301A4652001344F5
:1023B0005B00DAB2FB791344FB71F97997F82820B6
:1023C000134692009B1A5B008033994208DD00237C
:1023D000FB7197F82830DB00DAB2BB791344BB718C
:1023E0003B6801333B603B681B78002B8AD100BF00
:1023F00000BF1C37BD4690BDE042000880B500AF6D
:1024000001220A210120FEF72BFB002300220A21D2
:102410000120FEF779FB00BF80BD000080B586B0CB
:1024200000AF03460A46FB801346BB80FB88002BA7
:1024300031D0FB881B4A92FBF3F33B613B69002BD5
:102440002BD0BB884FF47A7203FB02F23B695B002E
:10245000B2FBF3F3FB6000237B6112E001220A214F
:102460000120FEF7C7FB3869FEF748FE00220A216B
:102470000120FEF7BFFB3869FEF740FE7B690133A0
:102480007B617A69FB689A42E8D300220A21012025
:10249000FEF7B0FB02E000BF00E000BF1837BD460A
:1024A00080BD00BF20A1070080B500AF1E2140F60F
:1024B000B830FFF7B3FF00BF80BD80B500AF3C214F
:1024C00040F2DC50FFF7AAFF00BF80BD80B500AF2F
:1024D00064214FF49660FFF7A1FF3220FEF7ECFD78
:1024E00064214FF4C860FFF799FF3220FEF7E4FD46
:1024F00096214FF4FA60FFF791FF00BF80BD80B5D1
:1025000000AF96214FF47A70FFF788FF5020FEF756
:10251000D3FD96214FF44870FFF780FF00BF80BDC8
:1025200080B500AFC8214FF4C870FFF777FF00BF38
:1025300080BD000080B483B000AF0023FB7115E0C4
:102540000023BB710CE0FA79B9790E4813465B00A1
:10255000134403440B4400221A70BB790133BB714E
:10256000BB79022BEFD9FB790133FB71FB79022B8D
:10257000E6D9054B01221A7000BF0C37BD465DF845
:10258000047B7047F4010020FD01002080B400AFFF
:10259000034B1B781846BD465DF8047B704700BFAF
:1025A000FD01002080B400AF074B1B78012B03D145
:1025B000054B02221A7002E0034B01221A7000BF81
:1025C000BD465DF8047B7047FD01002090B482B0E9
:1025D00000AF03460A46FB711346BB71FB79022B21
:1025E0000DD8BB79022B0AD8FA79B9790E4813466F
:1025F0005B00134403440B441B78002B01D00023E1
:102600000CE0FA79B979094B1C78074813465B004E
:10261000134403440B4422461A700123184608371A
:10262000BD4690BC704700BFF4010020FD010020B2
:1026300080B483B000AF0023FB710023BB7137E08F
:10264000BA795E4913465B0013440B441B78002B98
:102650002BD0BA79594913465B0013440B441978BF
:10266000BA79564813465B001344034401331B7880
:1026700099421AD1BA79514913465B0013440B446D
:1026800001331978BA794D4813465B00134403446B
:1026900002331B78994208D1BA79484913465B0046
:1026A00013440B441B78FB7105E0BB790133BB710C
:1026B000BB79022BC4D9FB79002B25D100237B7178
:1026C0001FE07B793D4AD35C002B17D07B793B4AD6
:1026D000D25C7B7939490B44DB789A420ED17B7905
:1026E000364A1344DA787B7934490B449B799A4211
:1026F00004D17B79314AD35CFB7105E07B790133EE
:102700007B717B79022BDCD9FB79002B26D12B4BFB
:102710001B78002B0FD0294B1A78284B1B799A4233
:1027200009D1264B1A79254B1B7A9A4203D1234BA8
:102730001B79FB7112E0214B9B78002B0ED01F4BB5
:102740009A781E4B1B799A4208D11C4B1A791B4B65
:102750009B799A4202D1194B1B79FB71FB79012BB2
:1027600001D1012324E0FB79022B01D102231FE0D8
:1027700000233B7118E00023FB700FE03A79F978F1
:102780000E4813465B00134403440B441B78002B94
:1027900001D100230CE0FB780133FB70FB78022BA6
:1027A000ECD93B7901333B713B79022BE3D903230D
:1027B00018460C37BD465DF8047B7047F4010020D5
:1027C00080B483B000AF0346FB71FB79012B06D1C7
:1027D0000A4B1B780133DAB2084B1A7008E0FB7918
:1027E000022B05D1064B1B780133DAB2044B1A7069
:1027F00000BF0C37BD465DF8047B7047FE0100202A
:10280000FF01002080B483B000AF0346FB71FB7969
:10281000012B02D1074B1B7806E0FB79022B02D17A
:10282000054B1B7800E0002318460C37BD465DF8C9
:10283000047B7047FE010020FF01002080B400AF40
:10284000054B00221A70054B00221A7000BFBD46CE
:102850005DF8047B704700BFFE010020FF010020EF
:1028600080B483B000AF03460A46FB711346BB71C8
:10287000FB79022B0CD8BB79022B09D8FA79B979EC
:10288000074813465B00134403440B441B7800E0E5
:10289000002318460C37BD465DF8047B704700BF27
:1028A000F401002080B500AFFEF7FCFA0021002003
:1028B000FEF71AFB01210020FEF716FB0C21032076
:1028C000FEF712FBFEF7A6FB022205210020FEF711
:1028D000C7F8052205210020FEF766FA022207212B
:1028E0000020FEF7BDF8052207210020FEF75CFA64
:1028F000002206210120FEF7B3F802220621012062
:10290000FEF7C6F9002207210120FEF7A9F80222EE
:1029100007210120FEF7BCF9002208210120FEF763
:102920009FF8022208210120FEF7B2F9FEF728FBEA
:10293000FDF796FFFDF7ACFC00BFFDE780B400AFEC
:1029400000BFFDE780B400AF00BFFDE780B400AF7B
:1029500000BFFDE780B400AF00BFFDE780B400AF6B
:1029600000BFFDE780B400AF00BFBD465DF8047B4B
:10297000704780B400AF00BFBD465DF8047B704770
:1029800080B400AF00BFBD465DF8047B704780B5E2
:1029900000AFFEF7D1FB00F005F900BF80BD80B4A9
:1029A00000AF01231846BD465DF8047B704780B533
:1029B00082B000AF7860396000F0BCFA034616229E
:1029C0001A604FF0FF3318460837BD4680BD80B50A
:1029D00082B000AF78604FF0FF317868FFF7E7FF13
:1029E00000BFFDE780B586B000AFF860B9607A60DF
:1029F00000237B610AE0AFF300800146BB685A1CEC
:102A0000BA60CAB21A707B6901337B617A697B68EC
:102A10009A42F0DB7B6818461837BD4680BD80B50A
:102A200086B000AFF860B9607A6000237B6109E08E
:102A3000BB685A1CBA601B781846AFF300807B69EC
:102A400001337B617A697B689A42F1DB7B681846C7
:102A50001837BD4680BD80B483B000AF78604FF0BA
:102A6000FF3318460C37BD465DF8047B704780B4D1
:102A700083B000AF786039603B684FF400525A6011
:102A8000002318460C37BD465DF8047B704780B4C0
:102A900083B000AF7860012318460C37BD465DF85F
:102AA000047B704780B485B000AFF860B9607A608D
:102AB000002318461437BD465DF8047B70470000BC
:102AC00080B586B000AF7860144A154BD31A7B618D
:102AD0007B693B61134B1B68002B02D1114B124ADF
:102AE0001A60104B1A687B6813443A699A4207D2FD
:102AF00000F020FA03460C221A604FF0FF3309E081
:102B0000084B1B68FB60074B1A687B681344054A37
:102B10001360FB6818461837BD4680BD00000120D1
:102B200000040000000200205803002080B400AF21
:102B3000064BD3F88830054A43F47003C2F8883056
:102B400000BFBD465DF8047B704700BF00ED00E0AC
:102B5000DFF834D0FFF7EAFF0C480D490D4A002397
:102B600002E0D458C4500433C4188C42F9D30A4A42
:102B70000A4C002301E013600432A242FBD300F0B0
:102B8000DFF9FFF78FFE70470000012000000020F2
:102B900074000020F8440008740000205403002052
:102BA000FEE7000080B400AF064B1B781A46064BC8
:102BB0001B681344044A136000BFBD465DF8047BE4
:102BC000704700BF1400002004020020164B10B50F
:102BD0001C68236BB3B9182000F042FA0246206348
:102BE00020B9124B1248522100F0D2F91149124B70
:102BF000C0E90013114B83600B2383810021012066
:102C0000C2E90401216B0E480B694C690D4A584317
:102C100002FB0400A3FB0232013340EB0200C1E9D6
:102C2000043020F0004010BD2400002007440008BC
:102C30001E4400080E33CDAB34126DE6ECDE050009
:102C40002DF451582D7F954C002310B50446C0E952
:102C50000033C0E90433836081814366C2818361AC
:102C6000194608225C3000F016F90D4B63620D4BDB
:102C7000A3620D4BE3620D4B23630D4B24629C4218
:102C800006D003F16802944202D0D0339C4205D1B1
:102C900004F15800BDE8104000F076B910BD00BF47
:102CA000112E0008332E00086B2E00088F2E00080E
:102CB00008020020024A0349034800F069B800BF37
:102CC000180000209D3800082800002041680C4BA7
:102CD000994210B5044601D000F0E0FDA168094B0F
:102CE000994202D0204600F0D9FDE168064B994296
:102CF00004D02046BDE8104000F0D0BD10BD00BF9C
:102D00000802002070020020D802002010B50B4BF2
:102D10000B4C0C4A1A60204600220421FFF794FF56
:102D200004F1680001220921FFF78EFF04F1D000B1
:102D30000222BDE810401221FFF786BF40030020A9
:102D400008020020B52C0008014800F01EB900BFA1
:102D500049030020014800F019B900BF49030020D1
:102D600010B50446FFF7F0FF236A1BB1BDE8104021
:102D7000FFF7F0BF044B2362044B1B68002BF5D117
:102D8000FFF7C4FFF2E700BFCD2C0008400300208E
:102D90002DE9F8430746884614460026D4E90195F4
:102DA000B9F1010905D52468002CF7D13046BDE8FA
:102DB000F883AB89012B07D9B5F90E30013303D065
:102DC00029463846C04706436835E9E70EB410B5D2
:102DD0009DB01FAB029006906FF000410A4807912A
:102DE00004910A4953F8042B0591002402A90068B4
:102DF00001931B9400F046FA029B1C701DB0BDE8C5
:102E0000104003B0704700BF240000200802FFFFFD
:102E100010B50C46B1F90E1000F068F80028ABBFF1
:102E2000636DA3891B1823F48053ACBF6365A38132
:102E300010BD2DE9F0411F468B89DB0505460C4688
:102E4000164605D5B1F90E100223002200F03CF819
:102E5000A389B4F90E1023F48053A38132463B4674
:102E60002846BDE8F04100F053B810B50C46B1F962
:102E70000E1000F029F8431CA38915BF606523F4E8
:102E8000805343F48053A38118BFA38110BDB1F9CF
:102E90000E1000F009B802440346934200D1704777
:102EA00003F8011BF9E7000038B5064D002304467E
:102EB00008462B60FFF7CFFD431C02D12B6803B1FE
:102EC000236038BD4403002038B5074D044608464A
:102ED000114600222A601A46FFF7E4FD431C02D186
:102EE0002B6803B1236038BD4403002038B5074D7B
:102EF00004460846114600222A601A46FFF772FD72
:102F0000431C02D12B6803B1236038BD4403002069
:102F100038B5074D04460846114600222A601A4675
:102F2000FFF77DFD431C02D12B6803B1236038BD40
:102F300044030020014B1868704700BF24000020A4
:102F400070B50D4D0D4C641BA4100026A64209D18E
:102F50000B4D0C4C00F0EEFF641BA4100026A642A3
:102F600005D170BD55F8043B98470136EEE755F89A
:102F7000043B98470136F2E7F0440008F0440008AB
:102F8000F0440008F44400087047704770470000A0
:102F90001FB514461A46094B1B680546D8684CB144
:102FA000074B0091CDE9013406492B4600F09EFC09
:102FB00000F0E6FC044B1C46F3E700BF24000020B1
:102FC0007644000883440008B144000838B505463B
:102FD000002941D051F8043C0C1F002BB8BFE41865
:102FE00000F0E8F81D4A136833B96360146028469E
:102FF000BDE8384000F0E4B8A34208D920682118A1
:103000008B4201BF19685B6809182160EDE71A4619
:103010005B680BB1A342FAD911685018A0420BD1DA
:1030200020680144501883421160E0D118685B6841
:10303000536008441060DAE702D90C232B60D6E70E
:10304000206821188B4204BF19685B68636004BF65
:10305000091821605460CAE738BD00BF5003002042
:10306000024B0146186800F025B800BF240000207C
:1030700070B50F4E0C463168054611B900F062FC80
:1030800030602146284600F05DFC431C03D14FF020
:10309000FF34204670BDC41C24F00304A042F8D0C5
:1030A000211A284600F04EFC0130F2D1EFE700BFB4
:1030B0004C0300202DE9F843CD1C25F0030508350D
:1030C0000C2D38BF0C25002D064601DBA94204D982
:1030D0000C2333600020BDE8F883DFF8D48000F0D3
:1030E00069F8D8F800301C4644BB29463046FFF743
:1030F000BFFF431C044658D1D8F800402746002F94
:1031000043D1002C4BD023683946304604EB0309E9
:1031100000F018FC814542D121686D1A29463046DD
:10312000FFF7A6FF01303AD023682B442360D8F87C
:1031300000305A6862BBC8F800700FE02268521B6A
:1031400020D40B2A17D96119A342256018BF5960F2
:10315000636808BFC8F8001062514B60304600F049
:103160002FF804F10B00231D20F00700C21A1CBF2A
:103170001B1AA350AFE76268A3420CBFC8F8002037
:103180005A60EBE723466468AEE73C467F68B6E7E3
:103190001A465B68A342FBD100235360DEE70C2391
:1031A0003360304600F00CF894E70560D6E700BFC6
:1031B000500300200148FFF7E8BE00BF480300208D
:1031C0000148FFF7E3BE00BF480300202DE9F047A8
:1031D0008E681F46BE420B6882460C4690462DD82C
:1031E000B1F90C2012F4906F26D06569096905EBDE
:1031F0004505A3EB010905EBD5757B1C4B446D1010
:103200009D4238BF1D46530527D52946FFF752FF7B
:10321000064660B321694A4600F0A4FBA38923F463
:10322000906343F08003A381266165614E44A5EB62
:1032300009052660A5603E46BE4200D93E4620688C
:103240003246414600F064FBA3689B1BA3602368E1
:10325000334423600020BDE8F0872A4600F097FB46
:1032600006460028E0D121695046FFF7AFFE0C2347
:10327000CAF80030A38943F04003A3814FF0FF3028
:10328000E9E700002DE9F04F98468B891B069DB0B9
:1032900007460D46144610D50B6973B94021FFF758
:1032A00009FF2860286130B90C233B604FF0FF30E4
:1032B0001DB0BDE8F08F40236B61002309932023EC
:1032C0008DF82930CDF80C803023DFF89C818DF803
:1032D0002A304FF0010923469A4613F8012B0AB110
:1032E000252AF9D1BAEB040B0BD05B4622462946BE
:1032F0003846FFF76BFF013000F0A780099A5A4467
:1033000009929AF80030002B00F09F8000234FF0C4
:10331000FF32CDE905230AF1010A049307938DF8E2
:1033200053301A935446052214F8011B4E48FCF7FB
:103330005FFF049AD8B9D00644BF20238DF85330DC
:10334000110744BF2B238DF853309AF800302A2BF5
:1033500015D0079A544600204FF00A0C214611F868
:10336000013B303B092B4BD9B0B1079214E0A0EBE5
:10337000080309FA03F313430493A246D2E7039B1D
:10338000191D1B680391002BBBBF5B4242F0020278
:1033900007930793B8BF049223782E2B0AD1637842
:1033A0002A2B32D1039B1A1D1B68039243EAE37355
:1033B00002340593DFF8C0A0217803225046FCF7C1
:1033C00017FF38B1049BA0EB0A0040228240134350
:1033D0000134049314F8011B24488DF828100622A8
:1033E000FCF706FF002836D0214B1BBB039B07339D
:1033F00023F0070308330393099B334409936AE7D7
:103400000CFB02320C460120A8E70023013405938F
:1034100019464FF00A0C204610F8012B303A092AC1
:1034200003D9002BC6D00591C4E70CFB012104464B
:103430000123F0E703AB00932A460E4B04A938465C
:10344000AFF30080421C0646D6D1AB895B063FF540
:103450002DAF09982CE703AB00932A46054B04A92E
:10346000384600F079F8EDE7B2440008BC440008A3
:1034700000000000CD310008B84400082DE9F047F5
:10348000164698468A680B69DDF820909342B8BFCB
:103490001346336091F8432007460C460AB10133C6
:1034A00033602368990642BF33680233336025686E
:1034B00015F0060506D104F1190AE36832689B1A73
:1034C000AB4226DC94F843302268003B18BF01234E
:1034D00092062BD404F1430241463846C8470130D6
:1034E0001ED02368226903F00603042B02BFE5689F
:1034F0003368ED1AA3680CBF25EAE57500259342F1
:10350000C4BF9B1AED1800261A34B5421AD1002008
:1035100008E00123524641463846C847013003D1EE
:103520004FF0FF30BDE8F0870135C6E7E1185A1CBF
:10353000302081F84300224494F8451082F843106B
:103540000233C7E70123224641463846C8470130C7
:10355000E6D00136D9E700002DE9FF470F7E0C9E2B
:10356000782F914680460C469A4601F1430207D8CF
:10357000622F0AD8002F00F0D180582F00F0B880B9
:1035800004F1420684F842703AE0A7F16303152B78
:10359000F6D801A151F823F0F135000805360008EE
:1035A0008135000881350008813500088135000823
:1035B000053600088135000881350008813500088E
:1035C00081350008033700082F360008BD36000893
:1035D000813500088135000825370008813500084D
:1035E0002F3600088135000881350008C5360008EF
:1035F00033681A1D1B68326004F1420684F84230B9
:1036000001239CE033682068191D3160060601D54E
:103610001D6803E04506FBD5B3F90050002D03DA21
:103620002D236D4284F8433058480A2311E0216865
:103630003368080653F8045B02D4490648BFADB2AC
:103640006F2F5248336014BF0A230823002184F8E7
:1036500043106668A660002E05DB21682E4321F02A
:10366000040121604BD01646B5FBF3F103FB115763
:10367000C75D06F8017D2F46BB420D46F4D9082BE5
:103680000BD12368DF0708D5236961689942DEBF43
:10369000302306F8013C06F1FF36921B2261CDF87B
:1036A00000A04B4603AA21464046FFF7E7FE013043
:1036B0004AD14FF0FF3004B0BDE8F087236843F0F3
:1036C000200323603248782784F8457023683168E6
:1036D0001F0651F8045B02D45F0648BFADB23160EB
:1036E000D90744BF43F0200323601DB11023ADE789
:1036F0002648E9E7236823F020032360F6E716460F
:10370000BDE7336825686169181D30602E061B68A7
:1037100001D5196002E06806FBD5198000232361FA
:103720001646BCE733681A1D32601E6862680021C5
:103730003046FCF75DFD08B1801B60606368236163
:10374000002384F84330AAE72369324649464046BD
:10375000D0470130ADD023689B0713D4E068039BAA
:103760009842B8BF1846A6E701233246494640466C
:10377000D04701309DD00135E36803995B1AAB4215
:10378000F2DCEBE7002504F11906F5E7C344000875
:10379000D4440008B1F90C202DE9F0411607054684
:1037A0000C4654D44B68002B02DC0B6C002B48DD1C
:1037B000E66A002E45D0002312F480522F68216A59
:1037C0002B6030D0626DA389590705D56368D21A82
:1037D000636B0BB1236CD21A0023E66A216A284678
:1037E000B047431CA38906D129681D292BD82A4A32
:1037F000CA40D60727D500226260D9042269226018
:1038000004D5421C01D12B6803B96065616B2F6040
:10381000B9B104F14403994202D02846FFF7D6FB20
:10382000002363630DE001232846B0470246501C85
:10383000C9D12B68002BC6D01D2B01D0162B1ED151
:103840002F60002022E043F040031BB21BE00F6911
:10385000002FF6D093070E6808BF4B690F6018BFA2
:103860000023A6EB07088B60B8F1000FE9DD216AA1
:10387000A66A43463A462846B047002808DCB4F911
:103880000C3043F04003A3814FF0FF30BDE8F081DE
:103890000744A8EB0008E7E70100402038B50B69B2
:1038A00005460C4613B90025284638BD18B1036AF1
:1038B0000BB9FFF755FAB4F90C30002BF3D0626E58
:1038C000D00704D4990502D4A06DFFF75EFB28460B
:1038D0002146FFF75FFF636EDA070546E4D4A3894C
:1038E0009B05E1D4A06DFFF751FBDDE70EB403B5F6
:1038F000014603AB054853F8042B0068019300F020
:103900009DF802B05DF804EB03B07047240000207E
:10391000884210B501EB020402D98442234607D83D
:10392000431EA14208D011F8012B03F8012FF8E73C
:10393000024401468A4200D110BD13F8014D02F83D
:10394000014DF7E738B5064D0023044608462B60C5
:10395000FFF7B6F8431C02D12B6803B1236038BDD2
:10396000440300200A44914200F1FF3300D1704724
:1039700010B511F8014B03F8014F9142F9D110BD78
:1039800008B5062000F02EFA0120FFF720F82DE9F7
:10399000F041074614460D4621B9BDE8F0411146F5
:1039A000FFF788BB2AB9FFF711FB25462846BDE87B
:1039B000F08100F033FA8442064602D8B4EB500F8F
:1039C000F4D821463846FFF775FB804608B94546CE
:1039D000ECE7B4422246294628BF3246FFF7C2FF31
:1039E00029463846FFF7F2FAF1E79368013B002BCE
:1039F00010B4936008DA9469A34201DB0A2903D169
:103A00005DF8044B00F032B91368581C106019704F
:103A100008465DF8044B7047F8B506460F46144655
:103A2000D518AC4201D1002007E014F8011B3A463A
:103A30003046FFF7DAFF431CF3D1F8BD2DE9F04F14
:103A40000D469DB014469846064618B1036A0BB958
:103A5000FFF786F96B6ED90705D4AB899A0502D4B6
:103A6000A86DFFF792FAAB891B0701D52B699BB9AB
:103A70002946304600F038F970B16B6EDC0704D58A
:103A80004FF0FF301DB0BDE8F08FAB899805F7D43B
:103A9000A86DFFF77BFAF3E70023099320238DF845
:103AA0002930CDF80C803023DFF8AC818DF82A3036
:103AB0004FF0010923469A4613F8012B0AB1252A33
:103AC000F9D1BAEB040B0BD05B46224629463046AF
:103AD000FFF7A2FF013000F0A780099A5A4409922B
:103AE0009AF80030002B00F09F8000234FF0FF3247
:103AF000CDE905230AF1010A049307938DF85330A9
:103B00001A935446052214F8011B5348FCF770FB26
:103B1000049AD8B9D10644BF20238DF85330130737
:103B200044BF2B238DF853309AF800302A2B15D040
:103B3000079A544600204FF00A0C214611F8013B29
:103B4000303B092B4BD9B0B1079214E0A0EB08032E
:103B500009FA03F313430493A246D2E7039B191D0A
:103B60001B680391002BBBBF5B4242F0020207932C
:103B70000793B8BF049223782E2B0AD163782A2B9F
:103B800032D1039B1A1D1B68039243EAE37302348C
:103B90000593DFF8D4A0217803225046FCF728FBD8
:103BA00038B1049BA0EB0A00402282401343013449
:103BB000049314F8011B29488DF828100622FCF7FD
:103BC00017FB00283FD0264B1BBB039B073323F07A
:103BD000070308330393099B3B4409936AE70CFBF3
:103BE00002320C460120A8E7002301340593194650
:103BF0004FF00A0C204610F8012B303A092A03D95D
:103C0000002BC6D00591C4E70CFB0121044601231B
:103C1000F0E703AB00932A46124B04A93046AFF3FA
:103C200000800746781CD6D16B6ED90705D4AB89C6
:103C30009A0502D4A86DFFF7A9F9AB895B063FF599
:103C40001FAF09981EE703AB00932A46054B04A952
:103C50003046FFF781FCE4E7B2440008BC440008AA
:103C600000000000193A0008B8440008F8B50E46F4
:103C70001446054618B1036A0BB9FFF771F8A3693A
:103C8000A360A3891A0701D5236943B921462846B1
:103C900000F02AF818B14FF0FF373846F8BD236816
:103CA0002269981A6369F6B28342374605DC2146D9
:103CB0002846FFF7F3FD0028EDD1A368013BA36080
:103CC00023685A1C22601E706269431C9A4204D009
:103CD000A389DB07E1D50A2EDFD121462846FFF76D
:103CE000DDFD0028D9D0D6E738B5294B0546186840
:103CF0000C4618B1036A0BB9FFF732F8B4F90C306F
:103D0000190722D4DA0607D409222A6043F04003B7
:103D1000A3814FF0FF3033E0580712D5616B41B1FA
:103D200004F14403994202D02846FFF74FF90023DB
:103D30006363A38923F02403A381002363602369C1
:103D40002360A38943F00803A38123694BB9A389A6
:103D500003F42073B3F5007F03D02146284600F01A
:103D60008BF8B4F90C3013F001020AD00022A260E3
:103D700062695242A261226942B913F08000C5D142
:103D800038BD990758BF6269A260F4E70020F7E7E1
:103D9000240000201F2938B505460C4604D91623F7
:103DA00003604FF0FF3038BDC26B12B152F82130C2
:103DB0004BB9284600F030F8224601462846BDE8B7
:103DC000384000F017B8012B0AD0591C03D1162334
:103DD00003600120E7E7002142F8241020469847BD
:103DE0000020E0E7024B01461868FFF7D3BF00BF91
:103DF0002400002038B5074D00230446084611462C
:103E00002B60FEF7D4FD431C02D12B6803B1236065
:103E100038BD00BF44030020FEF7C1BD51F8043C8B
:103E2000181F002BBCBF0B58C018704770B50C464C
:103E3000B1F90E10002996B015461E460DDAA38979
:103E400013F0800F4FF0000114BF40234FF4806344
:103E5000002031602B6016B070BD6A4600F048F853
:103E60000028ECDB019901F47041A1F5005359429F
:103E700059414FF48063EBE78B89F7B59D07064600
:103E80000C4607D504F147032360236101236361D6
:103E900003B0F0BD01AB6A46FFF7C8FF009F0546BF
:103EA00039463046FFF706F948B9B4F90C309A059F
:103EB000EED423F0030343F00203A381E2E7A389D6
:103EC000206043F08003A381019BC4E904075BB138
:103ED000B4F90E10304600F01DF828B1A38923F084
:103EE000030343F00103A381A3891D43A581CFE709
:103EF00038B5074D00230446084611462B60FEF7EF
:103F0000B6FD431C02D12B6803B1236038BD00BF4E
:103F10004403002038B5064D0023044608462B60B4
:103F2000FEF7B5FD431C02D12B6803B1236038BDF9
:103F300044030020F8B500BFF8BC08BC9E4670479B
:0C3F4000F8B500BFF8BC08BC9E467047F6
:103F4C00584F2047616D6500536E616B652047616A
:103F5C006D65000053454C4543542047414D450089
:103F6C0053434F52453A20256400000047414D45CC
:103F7C00204F564552000000484947483A202564D6
:103F8C0000000000583A0000256400004F3A000081
:103F9C00504C4159455220582057494E532100004E
:103FAC00504C41594552204F2057494E5321000047
:103FBC004452415721000000583A256420204F3AC2
:103FCC002564000052455354415254494E472E2EFD
:103FDC002E0000000000000000000000183C3C18FF
:103FEC0018001800363600000000000036367F3608
:103FFC007F3636000C3E031E301F0C000063331856
:10400C000C6663001C361C3B36371D00060C180072
:10401C0000000000180C0606060C1800060C1818F8
:10402C00180C060000183C7E3C180000000C0C3EDE
:10403C000C0C000000000000181830000000003EBE
:10404C000000000000000000001818000003060C1F
:10405C00183060003E63737B6F673E000C1C0C0CC9
:10406C000C0C3F003E63030E1C307F003E63031EAE
:10407C0003633E00060F183066663F007F607E03C8
:10408C0003633E003E63607C63633E007F03060C6B
:10409C00181818003E63633E63633E003E63633F43
:1040AC0003633E00001818000018180000181800D0
:1040BC0018183000180C0603060C180000003E00FF
:1040CC003E000000060C1830180C06003E63030E70
:1040DC000C000C003E637B7B7B633E003C66667E83
:1040EC00666666007E63637E63637E003C660303E4
:1040FC0003663C007C66666666667C007F03033E56
:10410C0003037F007F06063E060606003C6603039B
:10411C0073663E006666667E666666003E18181814
:10412C0018183E000F06060666663C006766361ECB
:10413C00366667000303030303037F0063777F6B1B
:10414C006B6B6B006363737B6F6763003E636363CE
:10415C0063633E007E63637E030303003E6363631D
:10416C007B333E607E63637E366667003E63031E70
:10417C0060633E007F3C1818181818006363636373
:10418C0063633E006363636363361C00636B6B6B3A
:10419C007F7763006363361C366363006363361C8E
:1041AC000C0C0C007F6030180C06030000000000A3
:1041BC000000005F00000007000700147F147F144C
:1041CC00242A7F2A12231308646236495522500090
:1041DC0005030000001C2241000041221C00082A9B
:1041EC001C2A0808083E080800503000000808087F
:1041FC000808006060000020100804023E51494588
:10420C003E00427F400042615149462141454B31BD
:10421C001814127F1027454545393C4A494930014D
:10422C00710905033649494936064949291E0036A4
:10423C0036000000563600000008142241141414F5
:10424C001414412214080002015109063249794123
:10425C003E7E1111117E7F494949363E4141412232
:10426C007F4141221C7F494949417F090901013E97
:10427C00414151727F0808087F00417F4100204076
:10428C00413F017F081422417F404040407F02049F
:10429C00027F7F0408107F3E4141413E7F0909099E
:1042AC00063E4151215E7F0919294646494949314B
:1042BC0001017F01013F4040403F1F2040201F3F34
:1042CC004038403F631408146303047804036151BD
:1042DC0049454300000000000000005F000000079B
:1042EC00000700147F147F14242A7F2A122313083A
:1042FC00646236495522500005030000001C22411F
:10430C00000041221C00082A1C2A0808083E080844
:10431C000050300000080808080800606000002009
:10432C00100804023E5149453E00427F4000426164
:10433C005149462141454B311814127F10274545F0
:10434C0045393C4A49493001710905033649494907
:10435C0036064949291E0036360000005636000044
:10436C0000081422411414141414412214080002DD
:10437C0001510906324979413E7E1111117E7F4966
:10438C004949363E414141227F4141221C7F4949E6
:10439C0049417F090901013E414151727F080808DA
:1043AC007F00417F41002040413F017F08142241A2
:1043BC007F404040407F0204027F7F0408107F3E14
:1043CC004141413E7F090909063E4151215E7F0969
:1043DC00192946464949493101017F01013F4040B5
:1043EC00403F1F2040201F3F4038403F63140814BB
:1043FC0063030478040361514945435245454E54C7
:10440C00206D616C6C6F63207375636365656465A7
:10441C0064002F6275696C642F676E752D746F6FF5
:10442C006C732D666F722D73746D33325F31332E56
:10443C00332E72656C312E32303234303932362DA7
:10444C00313731352F7372632F6E65776C69622F3C
:10445C006E65776C69622F6C6962632F7374646C20
:10446C0069622F72616E642E63002C2066756E6318
:10447C0074696F6E3A2000617373657274696F6E44
:10448C002022257322206661696C65643A20666976
:10449C006C6520222573222C206C696E65202564A6
:1044AC00257325730A00232D302B2000686C4C00DB
:1044BC006566674546470030313233343536373818
:1044CC003941424344454600303132333435363776
:0C44DC003839616263646566000000000E
:0844E800F8BCFF7F0100000099
:0444F000C5010008FA
:0444F400A10100081A
:1044F8004C3F0008543F00080000024000040240FE
:104508000008024001000000000000000300000055
:1045180008020020280000200000000008020020F7
:1045280070020020D80200200000000000000000F7
:104538000000000000000000000000000000000073
:104548000000000000000000000000000000000063
:104558000000000000000000000000000000000053
:04456800000000004F
:0400000508002B5173
:00000001FF
