:020000040800F2
:1000000000000120B5150008C7140008CF1400082F
:10001000D7140008DF140008E714000800000000EF
:10002000000000000000000000000000EF140008C5
:10003000FD140008000000000B1500081915000849
:100040000516000805160008051600080516000824
:100050000516000805160008051600080516000814
:100060000516000805160008051600080516000804
:1000700005160008051600080516000805160008F4
:100080000516000805160008051600080000000007
:10009000000000000000000000000000051600083D
:1000A00005160008051600080516000805160008C4
:1000B00005160008051600080516000805160008B4
:1000C00005160008051600080516000805160008A4
:1000D00005160008051600080516000800000000B7
:1000E00005160008051600080516000800000000A7
:1000F00000000000000000000000000005160008DD
:100100000000000005160008051600080516000886
:1001100000000000000000000000000000000000DF
:100120000516000805160008051600080516000843
:10013000051600080000000000000000000000009C
:10014000000000000000000000000000051600088C
:100150000516000805160008051600080516000813
:100160000516000805160008000000000000000049
:10017000000000000000000000000000000000007F
:10018000000000000516000800000000000000004C
:040190000516000848
:1001A00010B5054C237833B9044B13B10448AFF3B1
:1001B00000800123237010BD6000002000000000BB
:1001C000601F000808B5034B1BB103490348AFF398
:1001D000008008BD0000000064000020601F0008CF
:1001E00001F0FF01102A2BDB10F0070F08D010F8E8
:1001F000013B013A8B422DD010F0070F42B3F6D1EC
:10020000F0B441EA012141EA014122F007047FF004
:1002100000070023F0E80256083C85EA010586EA5B
:10022000010685FA47F5A3FA87F586FA47F6A5FA97
:1002300087F68EB9EED1F0BC01F0FF0102F00702A3
:1002400032B110F8013B013A83EA010313B1F8D14E
:100250000020704701387047002D06BF354603382F
:10026000073815F0010F07D1013015F4807F02BF68
:10027000013015F4C03F0130F0BC0138704700BFB9
:1002800080B500AF01220021002000F0F9F8002322
:1002900000220021002000F047F901220121002066
:1002A00000F0EEF8002300220121002000F03CF9CC
:1002B00001220021002000F0ADF9642000F02EFCA6
:1002C00000220021002000F0A5F9012000F026FC0A
:1002D00001220021002000F09DF9642000F01EFCA6
:1002E00000220021002000F095F9642000F016FCA7
:1002F00001220021002000F08DF9782000F0ECFBB5
:10030000112000F021F80A2000F0E6FB3A2000F06E
:100310001BF8052000F005F8292000F015F800BFB3
:1003200080BD80B582B000AF0346FB710122012180
:10033000002000F06FF9FB799BB2184600F058FBE3
:1003400000BF0837BD4680BD80B582B000AF034610
:10035000FB7100220121002000F05CF9FB799BB2C7
:10036000184600F045FB00BF0837BD4680BD90B57C
:1003700083B000AF0446084611461A462346FB7177
:100380000346BB710B467B7113463B712A20FFF776
:10039000DBFF0020FFF7C5FFFB791846FFF7C1FF21
:1003A0000020FFF7BEFFBB791846FFF7BAFF2B20EE
:1003B000FFF7CAFF0020FFF7B4FF7B791846FFF76D
:1003C000B0FF0020FFF7ADFF3B791846FFF7A9FF0C
:1003D0002C20FFF7B9FF00BF0C37BD4690BD80B59C
:1003E00084B000AF03463960FB80FB881B0A9BB2D8
:1003F000FB72FB88BB720023FB600AE0FB7A1846A5
:10040000FFF78FFFBB7A1846FFF78BFFFB680133BE
:10041000FB60FA683B689A42F0D300BF00BF103718
:10042000BD4680BD90B585B000AF04460846114674
:100430001A462346FB710346BB710B467B7113467C
:100440003B717B793A7902FB03F3FB60FA797B79A4
:100450001344DBB2013BD9B2BA793B791344DBB226
:10046000013BDBB2BA79F879FFF781FF3B8CF96881
:100470001846FFF7B4FF00BF1437BD4690BD00001B
:1004800080B483B000AF0346FB710B46BB711346CB
:100490007B71FB79002B08D1BB790D2B38D0BB7950
:1004A0000E2B35D0BB790F2B32D0FB79012B08D125
:1004B000BB79032B2ED0BB79042B2BD0BB79052B1A
:1004C00028D0FB79022B27D8FB79164A52F8233023
:1004D0001A68BB795B00032101FA03F3DB4318467A
:1004E000FB79104951F8233002401A60FB790D4A1C
:1004F00052F823301A687979BB795B0001FA03F36B
:100500001846FB79074951F8233002431A6004E08A
:1005100000BF02E000BF00E000BF0C37BD465DF841
:10052000047B70470000002090B482B000AF044606
:10053000084611461A462346FB710346BB710B461B
:100540007B7113463B71FB79002B08D1BB790D2BD6
:1005500056D0BB790E2B53D0BB790F2B50D0FB79E3
:10056000012B08D1BB79032B4CD0BB79042B49D08C
:10057000BB79052B46D0FB79254A52F823305A68BF
:10058000BB79012101FA03F3DB431846FB792049CB
:1005900051F8233002405A60FB791D4A52F823304B
:1005A0005A687979BB7901FA03F31846FB7918493F
:1005B00051F8233002435A60FB79154A52F8233030
:1005C0009A68BB795B00032101FA03F3DB43184609
:1005D000FB790F4951F8233002409A60FB790C4AAD
:1005E00052F823309A683979BB795B0001FA03F33A
:1005F0001846FB79064951F8233002439A6002E01D
:1006000000BF00E000BF0837BD4690BC704700BF88
:100610000000002080B483B000AF0346FB710B469E
:10062000BB7113467B71FB79002B08D1BB790D2B75
:1006300033D0BB790E2B30D0BB790F2B2DD0FB796B
:10064000012B08D1BB79032B29D0BB79042B26D0F1
:10065000BB79052B23D0FB79144A52F823305A6911
:10066000BB79012101FA03F3DB431846FB790F49FB
:1006700051F8233002405A61FB790C4A52F823307A
:100680005A697979BB7901FA03F31846FB7907496E
:1006900051F8233002435A6102E000BF00E000BF7E
:1006A00000BF0C37BD465DF8047B7047000000209A
:1006B00080B483B000AF0346FB710B46BB71134699
:1006C0007B71FB79002B08D1BB790D2B35D0BB7921
:1006D0000E2B32D0BB790F2B2FD0FB79012B08D1F9
:1006E000BB79032B2BD0BB79042B28D0BB79052BEE
:1006F00025D0FB79154A52F82330DA68BB795B00C4
:10070000032101FA03F3DB431846FB790F4951F843
:1007100023300240DA60FB790C4A52F82330DA6861
:100720007979BB795B0001FA03F31846FB79074935
:1007300051F823300243DA6002E000BF00E000BF5E
:1007400000BF0C37BD465DF8047B704700000020F9
:1007500080B485B000AF03460A46FB711346BB71F7
:100760000023FB73FB79002B08D1BB790D2B1ED026
:10077000BB790E2B1BD0BB790F2B18D0FB79012B2B
:1007800008D1BB79032B14D0BB79042B11D0BB79D2
:10079000052B0ED0FB790B4A52F823301A69BB792E
:1007A00022FA03F3DBB203F00103FB7302E000BFA4
:1007B00000E000BFFB7B18461437BD465DF8047BA4
:1007C000704700BF0000002080B483B000AF034634
:1007D000FB710B46BB7113467B71FB79002B08D173
:1007E000BB790D2B62D0BB790E2B5FD0BB790F2B61
:1007F0005CD0FB79012B08D1BB79032B58D0BB7996
:10080000042B55D0BB79052B52D0BB79072B23D8AD
:10081000FB792B4A52F823301A6ABB799B000F21CF
:1008200001FA03F3DB431846FB79254951F82330DD
:1008300002401A62FB79224A52F823301A6A797907
:10084000BB799B0001FA03F31846FB791C4951F868
:10085000233002431A622CE0BB790F2B29D8BB79D5
:10086000083BBB71FB79164A52F823305A6ABB79B0
:100870009B000F2101FA03F3DB431846FB79104973
:1008800051F8233002405A62FB790D4A52F8233066
:100890005A6A7979BB799B0001FA03F31846FB7910
:1008A000074951F8233002435A6202E000BF00E0DA
:1008B00000BF00BF0C37BD465DF8047B704700BF2A
:1008C0000000002080B400AF0E4B1B680D4A43F0BF
:1008D0000103136000BF0B4B1B685B0803F00103AF
:1008E000002BF8D0074B9B68064A03F00303936084
:1008F000044B044A9B68936000BFBD465DF8047BCF
:10090000704700BF0038024080B483B000AF034698
:100910003960FB713B681F2B3AD8FB79032B37D822
:1009200001A252F823F000BF390900084F0900085E
:10093000650900087B090008184B1B6B01213A6808
:1009400001FA02F21146154A0B43136320E0134BE0
:100950005B6B01213A6801FA02F211460F4A0B4320
:10096000536315E00D4B1B6C01213A6801FA02F24A
:1009700011460A4A0B4313640AE0084B5B6C0121E1
:100980003A6801FA02F21146044A0B43536400BF6D
:1009900000BF0C37BD465DF8047B7047003802404D
:1009A00080B400AF114B1B68104A43F4007313600E
:1009B0000E4B1B680D4A43F4807313600B4B1B688E
:1009C0000A4A43F004031360084B1B68074A43F0CC
:1009D00002031360054B1B68044A43F04003136095
:1009E00000BFBD465DF8047B704700BF003001408A
:1009F00080B483B000AF0346FB8000BF0C4B9B6804
:100A00005B0803F00103002BF8D0094AFB88D36090
:100A100000BF074B9B6803F00103002BF9D0044B88
:100A2000DB689BB218460C37BD465DF8047B704707
:100A30000030014080B400AF084B1B68074A23F028
:100A400004031360054B1B68044A23F00103136081
:100A500000BFBD465DF8047B704700BF10E000E0BA
:100A600080B483B000AF7860084A7B685360074B5E
:100A700000229A60054B1B68044A43F0010313608F
:100A800000BF0C37BD465DF8047B704710E000E006
:100A900080B483B000AF0346FB71064B1A68FB7944
:100AA0005B00044913430B6000BF0C37BD465DF883
:100AB000047B704710E000E080B400AF054B1B687A
:100AC0001B0CDBB203F00103DBB21846BD465DF838
:100AD000047B704710E000E080B582B000AF786022
:100AE0000020FFF7D5FF7B684FF4FA6202FB03F3A7
:100AF0001846FFF7B5FF00BFFFF7DEFF0346002BE8
:100B0000FAD0054B1B68044A23F00103136000BFB1
:100B10000837BD4680BD00BF10E000E080B582B060
:100B200000AF78600020FFF7B3FF7B685B001846DA
:100B3000FFF796FF00BFFFF7BFFF0346002BFAD079
:100B4000044B1B68034A23F00103136000BF0837FE
:100B5000BD4680BD10E000E080B483B000AF00234C
:100B6000FB7115E00023BB710CE0FA79B9790E48EE
:100B700013465B00134403440B4400221A70BB79F4
:100B80000133BB71BB79022BEFD9FB790133FB71C8
:100B9000FB79022BE6D9054B01221A7000BF0C37F6
:100BA000BD465DF8047B70477C0000208500002076
:100BB00080B400AF034B1B781846BD465DF8047B3C
:100BC000704700BF8500002080B400AF074B1B7842
:100BD000012B03D1054B02221A7002E0034B0122C4
:100BE0001A7000BFBD465DF8047B70478500002089
:100BF00090B482B000AF03460A46FB711346BB7146
:100C0000FB79022B0DD8BB79022B0AD8FA79B97976
:100C10000E4813465B00134403440B441B78002B1F
:100C200001D000230CE0FA79B979094B1C78074808
:100C300013465B00134403440B4422461A700123FD
:100C400018460837BD4690BC704700BF7C000020A6
:100C50008500002080B483B000AF0023FB71002327
:100C6000BB7137E0BA795E4913465B0013440B440D
:100C70001B78002B2BD0BA79594913465B001344DB
:100C80000B441978BA79564813465B001344034461
:100C900001331B7899421AD1BA79514913465B0046
:100CA00013440B4401331978BA794D4813465B005D
:100CB0001344034402331B78994208D1BA79484956
:100CC00013465B0013440B441B78FB7105E0BB79B2
:100CD0000133BB71BB79022BC4D9FB79002B25D121
:100CE00000237B711FE07B793D4AD35C002B17D03A
:100CF0007B793B4AD25C7B7939490B44DB789A4259
:100D00000ED17B79364A1344DA787B7934490B4427
:100D10009B799A4204D17B79314AD35CFB7105E01F
:100D20007B7901337B717B79022BDCD9FB79002B3A
:100D300026D12B4B1B78002B0FD0294B1A78284B30
:100D40001B799A4209D1264B1A79254B1B7A9A4274
:100D500003D1234B1B79FB7112E0214B9B78002BB5
:100D60000ED01F4B9A781E4B1B799A4208D11C4B10
:100D70001A791B4B9B799A4202D1194B1B79FB7153
:100D8000FB79012B01D1012324E0FB79022B01D156
:100D900002231FE000233B7118E00023FB700FE0EB
:100DA0003A79F9780E4813465B00134403440B4428
:100DB0001B78002B01D100230CE0FB780133FB7082
:100DC000FB78022BECD93B7901333B713B79022B49
:100DD000E3D9032318460C37BD465DF8047B704702
:100DE0007C00002080B483B000AF0346FB71FB7928
:100DF000012B06D10A4B1B780133DAB2084B1A706B
:100E000008E0FB79022B05D1064B1B780133DAB2DF
:100E1000044B1A7000BF0C37BD465DF8047B704769
:100E2000860000208700002080B483B000AF034616
:100E3000FB71FB79012B02D1074B1B7806E0FB7994
:100E4000022B02D1054B1B7800E0002318460C371B
:100E5000BD465DF8047B70478600002087000020B7
:100E600080B400AF054B00221A70054B00221A70A7
:100E700000BFBD465DF8047B704700BF86000020C0
:100E80008700002080B584B002AFFFF71BFD002172
:100E90000020FFF739FD01210020FFF735FD0C216F
:100EA0000320FFF731FDFFF7C5FD022205210020D9
:100EB000FFF7E6FA052205210020FFF785FC022254
:100EC00007210020FFF7DCFA052207210020FFF7A9
:100ED0007BFC002206210120FFF7D2FA0222062124
:100EE0000120FFF7E5FB002207210120FFF7C8FAE8
:100EF000022207210120FFF7DBFB0022082101204D
:100F0000FFF7BEFA022208210120FFF7D1FBFFF70D
:100F100047FDFFF7B5F9FFF71FFE00F01AF900F0E3
:100F200013FA0023FB710023BB7100237B71B97995
:100F3000FB794FF6E072184600F0BAF97B79002B86
:100F400014D07B79012B02D10120FFF74BFF7B7975
:100F5000022B02D10220FFF745FF7B79184600F0F3
:100F600037FA4FF47A60FFF7B7FDD4E70721012085
:100F700000F091F80346002B1CD0B979FB790022D0
:100F8000184600F095F9BB790133BB71BB79022B90
:100F900009D90023BB71FB790133FB71FB79022B6B
:100FA00001D90023FB71B979FB794FF6E07218463D
:100FB00000F07EF940F2DC520721012000F099F8A0
:100FC0000346002B1AD0FFF74BFF00F0BDF94FF698
:100FD000FF730093A023802200210020FFF722FA54
:100FE0009620FFF779FD00F0B4F800F0ADF9B9797B
:100FF000FB794FF6E072184600F05AF9FFF7D8FD7A
:1010000003463B713B79012B1FD10621012000F0E3
:1010100042F80346002B3AD0BA79FB7911461846BC
:10102000FFF7E6FD0346002B31D03A79B979FB7919
:10103000184600F0C0F8FFF70DFE03467B717B7980
:10104000002B24D1FFF7C0FD21E03B79022B1ED1FC
:101050000821012000F01FF80346002B17D0BA79B1
:10106000FB7911461846FFF7C3FD0346002B0ED04F
:101070003A79B979FB79184600F09DF8FFF7EAFD57
:1010800003467B717B79002B01D1FFF79DFD322058
:10109000FFF722FD52E780B582B000AF03460A4653
:1010A000FB711346BB71BA79FB7911461846FFF7FD
:1010B0004FFB0346012B17D13220FFF70DFDBA7904
:1010C000FB7911461846FFF743FB0346012B0BD172
:1010D00000BFBA79FB7911461846FFF739FB034682
:1010E000012BF6D0012300E0002318460837BD4647
:1010F00080BD80B582B000AF0346FB710B46BB716B
:101100001346BB80BA79FB7911461846FFF720FBDE
:101110000346012B18D1BB881846FFF7DDFCBA79CE
:10112000FB7911461846FFF713FB0346012B0BD141
:1011300000BFBA79FB7911461846FFF709FB034651
:10114000012BF6D0012300E0002318460837BD46E6
:1011500080BD80B582B002AF00230093A02380221F
:1011600000210020FFF75EF94FF6FF73009378230C
:10117000042214212A20FFF755F94FF6FF7300933C
:101180007823042214215220FFF74CF94FF6FF7305
:101190000093042378223A210420FFF743F94FF605
:1011A000FF7300930423782262210420FFF73AF9A9
:1011B00000BFBD4680BD80B586B002AF0346FB715F
:1011C0000B46BB7113467B71BB791A4692001344E0
:1011D000DB00DBB20933BB73FB791A469200134480
:1011E000DB00DBB219337B731E233B737B79012B4E
:1011F0002DD10023FB7325E0BA7BFB7B1344D8B2CF
:101200007A7BFB7B1344D9B24FF4784300930223DB
:101210000222FFF707F93A7BFB7BD31ADAB2BB7BDA
:101220001344DBB2013BD8B27A7BFB7B1344D9B2C7
:101230004FF47843009302230222FFF7F3F8FB7B7D
:101240000133FB73FA7B3B7B9A42D5D32CE07B794D
:10125000022B29D13A7B797BB87B1F230093032390
:10126000FFF7E0F87A7B3B7B1344DBB2033BD9B258
:101270003A7BB87B1F2300930323FFF7D3F83B7B14
:10128000797BB87B1F2200920322FFF7CBF8BA7B51
:101290003B7B1344DBB2033BD8B23B7B797B1F2201
:1012A00000920322FFF7BEF800BF1037BD4680BD95
:1012B00080B586B002AF0346FB710B46BB71134687
:1012C000BB80BB791A4692001344DB00DBB20433C7
:1012D000FB73FB791A4692001344DB00DBB2143334
:1012E000BB7302237B737A7BB97BF87BBB8800934B
:1012F00013462822FFF796F8BA7B7B7BD31ADBB222
:101300002833D9B27A7BF87BBB8800931346282216
:10131000FFF788F87A7BB97BF87BBB88009328239A
:10132000FFF780F8FA7B7B7BD31ADBB22833D8B285
:101330007A7BB97BBB8800932823FFF773F800BF43
:101340001037BD4680BD000080B586B002AF0023D7
:1013500000931223802200210020FFF763F84FF44E
:101360007843184A0521052000F082F80120FFF794
:101370005BFD03461A463B1D1349184600F058F919
:101380003A1D4FF6FF730521192000F071F81F2355
:101390000E4A0521502000F06BF80220FFF744FDB3
:1013A00003461A463B1D0849184600F041F93A1D0C
:1013B0004FF6FF730521642000F05AF800BF103784
:1013C000BD4680BD781F00087C1F0008801F0008F4
:1013D00090B58BB002AF0346FB7100230093A023AE
:1013E000802200210020FFF71DF8FB79012B07D197
:1013F0004FF478431A4A28211E2000F039F813E0F0
:10140000FB79022B06D11F23164A28211E2000F04B
:101410002FF809E0FB79032B06D14FF6FF73124A30
:1014200028212D2000F024F80120FFF7FDFC0346C1
:101430001C460220FFF7F8FC034607F10C00224689
:101440000A4900F0F5F807F10C024FF6E07350215D
:101450000F2000F00DF800BF2437BD4690BD00BF3F
:10146000841F0008941F0008A41F0008AC1F000878
:1014700080B584B002AF3A601A460346FB710B4652
:10148000BB711346BB8015E0B979F879BB8800932E
:1014900007230522FEF7C6FFFB790633FB71FB79B4
:1014A0007B2B04D90A23FB71BB790A33BB713B68E0
:1014B00001333B603B681B78002BE5D100BF00BFC8
:1014C0000837BD4680BD80B400AF00BFFDE780B4E3
:1014D00000AF00BFFDE780B400AF00BFFDE780B400
:1014E00000AF00BFFDE780B400AF00BFFDE780B4F0
:1014F00000AF00BFBD465DF8047B704780B400AF0D
:1015000000BFBD465DF8047B704780B400AF00BFEC
:10151000BD465DF8047B704780B500AF00F074F8FD
:1015200000BF80BD80B586B000AF7860144A154B0F
:10153000D31A7B617B693B61134B1B68002B02D183
:10154000114B124A1A60104B1A687B6813443A69AF
:101550009A4207D200F08EF803460C221A604FF030
:10156000FF3309E0084B1B68FB60074B1A687B6878
:101570001344054A1360FB6818461837BD4680BD02
:10158000000001200004000088000020D801002095
:1015900080B400AF064BD3F88830054A43F470039B
:1015A000C2F8883000BFBD465DF8047B704700BFBD
:1015B00000ED00E0DFF834D0FFF7EAFF0C480D49FA
:1015C0000D4A002302E0D458C4500433C4188C429E
:1015D000F9D30A4A0A4C002301E013600432A24204
:1015E000FBD300F04DF8FFF74DFC704700000120E1
:1015F00000000020600000200020000860000020A3
:10160000D8010020FEE7000080B400AF064B1B7835
:101610001A46064B1B681344044A136000BFBD46BC
:101620005DF8047B704700BF0C0000208C00002098
:101630000EB410B59DB01FAB029006906FF0004144
:101640000A48079104910A4953F8042B0591002494
:1016500002A9006801931B9400F08CF9029B1C7096
:101660001DB0BDE8104003B0704700BF100000205F
:101670000802FFFF014B1868704700BF10000020F0
:1016800070B50D4D0D4C641BA4100026A64209D167
:101690000B4D0C4C00F064FC641BA4100026A64209
:1016A00005D170BD55F8043B98470136EEE755F873
:1016B000043B98470136F2E7F81F0008F81F0008BE
:1016C000F81F0008FC1F00087047704738B5054632
:1016D000002941D051F8043C0C1F002BB8BFE4187E
:1016E00000F0E0F81D4A136833B9636014602846BF
:1016F000BDE8384000F0DCB8A34208D920682118C2
:101700008B4201BF19685B6809182160EDE71A4632
:101710005B680BB1A342FAD911685018A0420BD1F3
:1017200020680144501883421160E0D118685B685A
:10173000536008441060DAE702D90C232B60D6E727
:10174000206821188B4204BF19685B68636004BF7E
:10175000091821605460CAE738BD00BFD4010020D9
:1017600070B50F4E0C463168054611B900F0A4FB68
:1017700030602146284600F09FFB431C03D14FF008
:10178000FF34204670BDC41C24F00304A042F8D0EE
:10179000211A284600F090FB0130F2D1EFE700BF9C
:1017A000D00100202DE9F843CD1C25F003050835B4
:1017B0000C2D38BF0C25002D064601DBA94204D9AB
:1017C0000C2333600020BDE8F883DFF8D48000F0FC
:1017D00069F8D8F800301C4644BB29463046FFF76C
:1017E000BFFF431C044658D1D8F800402746002FBD
:1017F00043D1002C4BD023683946304604EB030913
:1018000000F05AFB814542D121686D1A29463046C5
:10181000FFF7A6FF01303AD023682B442360D8F8A5
:1018200000305A6862BBC8F800700FE02268521B93
:1018300020D40B2A17D96119A342256018BF59601B
:10184000636808BFC8F8001062514B60304600F072
:101850002FF804F10B00231D20F00700C21A1CBF53
:101860001B1AA350AFE76268A3420CBFC8F8002060
:101870005A60EBE723466468AEE73C467F68B6E70C
:101880001A465B68A342FBD100235360DEE70C23BA
:101890003360304600F00CF894E70560D6E700BFEF
:1018A000D40100200148FFF70FBF00BFCC0100208A
:1018B0000148FFF70ABF00BFCC0100202DE9F04727
:1018C0008E681F46BE420B6882460C4690462DD855
:1018D000B1F90C2012F4906F26D06569096905EB07
:1018E0004505A3EB010905EBD5757B1C4B446D1039
:1018F0009D4238BF1D46530527D52946FFF752FFA5
:10190000064660B321694A4600F0E6FAA38923F44B
:10191000906343F08003A381266165614E44A5EB8B
:1019200009052660A5603E46BE4200D93E462068B5
:101930003246414600F0A6FAA3689B1BA3602368C9
:10194000334423600020BDE8F0872A4600F0D2FA35
:1019500006460028E0D121695046FFF7B7FE0C2368
:10196000CAF80030A38943F04003A3814FF0FF3051
:10197000E9E700002DE9F04F98468B891B069DB0E2
:1019800007460D46144610D50B6973B94021FFF781
:1019900009FF2860286130B90C233B604FF0FF300D
:1019A0001DB0BDE8F08F40236B6100230993202315
:1019B0008DF82930CDF80C803023DFF89C818DF82C
:1019C0002A304FF0010923469A4613F8012B0AB139
:1019D000252AF9D1BAEB040B0BD05B4622462946E7
:1019E0003846FFF76BFF013000F0A780099A5A4490
:1019F00009929AF80030002B00F09F8000234FF0EE
:101A0000FF32CDE905230AF1010A049307938DF80B
:101A100053301A935446052214F8011B4E48FEF722
:101A2000DFFB049AD8B9D00644BF20238DF8533089
:101A3000110744BF2B238DF853309AF800302A2B1E
:101A400015D0079A544600204FF00A0C214611F891
:101A5000013B303B092B4BD9B0B1079214E0A0EB0E
:101A6000080309FA03F313430493A246D2E7039B46
:101A7000191D1B680391002BBBBF5B4242F00202A1
:101A800007930793B8BF049223782E2B0AD163786B
:101A90002A2B32D1039B1A1D1B68039243EAE3737E
:101AA00002340593DFF8C0A0217803225046FEF7E8
:101AB00097FB38B1049BA0EB0A00402282401343FD
:101AC0000134049314F8011B24488DF828100622D1
:101AD000FEF786FB002836D0214B1BBB039B073348
:101AE00023F0070308330393099B334409936AE700
:101AF0000CFB02320C460120A8E7002301340593B9
:101B000019464FF00A0C204610F8012B303A092AEA
:101B100003D9002BC6D00591C4E70CFB0121044674
:101B20000123F0E703AB00932A460E4B04A9384685
:101B3000AFF30080421C0646D6D1AB895B063FF569
:101B40002DAF09982CE703AB00932A46054B04A957
:101B5000384600F079F8EDE7BC1F0008C61F000802
:101B600000000000BD180008C21F00082DE9F04762
:101B7000164698468A680B69DDF820909342B8BFF4
:101B80001346336091F8432007460C460AB10133EF
:101B900033602368990642BF336802333360256897
:101BA00015F0060506D104F1190AE36832689B1A9C
:101BB000AB4226DC94F843302268003B18BF012377
:101BC00092062BD404F1430241463846C8470130FF
:101BD0001ED02368226903F00603042B02BFE568C8
:101BE0003368ED1AA3680CBF25EAE575002593421A
:101BF000C4BF9B1AED1800261A34B5421AD1002032
:101C000008E00123524641463846C847013003D117
:101C10004FF0FF30BDE8F0870135C6E7E1185A1CE8
:101C2000302081F84300224494F8451082F8431094
:101C30000233C7E70123224641463846C8470130F0
:101C4000E6D00136D9E700002DE9FF470F7E0C9E54
:101C5000782F914680460C469A4601F1430207D8F8
:101C6000622F0AD8002F00F0D180582F00F0B880E2
:101C700004F1420684F842703AE0A7F16303152BA1
:101C8000F6D801A151F823F0E11C0008F51C00086A
:101C9000711C0008711C0008711C0008711C0008F0
:101CA000F51C0008711C0008711C0008711C00085C
:101CB000711C0008F31D00081F1D0008AD1D000861
:101CC000711C0008711C0008151E0008711C00081A
:101CD0001F1D0008711C0008711C0008B51D0008BC
:101CE00033681A1D1B68326004F1420684F84230E2
:101CF00001239CE033682068191D3160060601D578
:101D00001D6803E04506FBD5B3F90050002D03DA4A
:101D10002D236D4284F8433058480A2311E021688E
:101D20003368080653F8045B02D4490648BFADB2D5
:101D30006F2F5248336014BF0A230823002184F810
:101D400043106668A660002E05DB21682E4321F053
:101D5000040121604BD01646B5FBF3F103FB11578C
:101D6000C75D06F8017D2F46BB420D46F4D9082B0E
:101D70000BD12368DF0708D5236961689942DEBF6C
:101D8000302306F8013C06F1FF36921B2261CDF8A4
:101D900000A04B4603AA21464046FFF7E7FE01306C
:101DA0004AD14FF0FF3004B0BDE8F087236843F01C
:101DB000200323603248782784F84570236831680F
:101DC0001F0651F8045B02D45F0648BFADB2316014
:101DD000D90744BF43F0200323601DB11023ADE7B2
:101DE0002648E9E7236823F020032360F6E7164638
:101DF000BDE7336825686169181D30602E061B68D1
:101E000001D5196002E06806FBD519800023236123
:101E10001646BCE733681A1D32601E6862680021EE
:101E20003046FEF7DDF908B1801B6060636823610E
:101E3000002384F84330AAE72369324649464046E6
:101E4000D0470130ADD023689B0713D4E068039BD3
:101E50009842B8BF1846A6E7012332464946404695
:101E6000D04701309DD00135E36803995B1AAB423E
:101E7000F2DCEBE7002504F11906F5E7CD1F0008B9
:101E8000DE1F0008884210B501EB020402D984422B
:101E9000234607D8431EA14208D011F8012B03F8AE
:101EA000012FF8E7024401468A4200D110BD13F821
:101EB000014D02F8014DF7E738B5064D0023044601
:101EC00008462B60FFF72EFB431C02D12B6803B1A1
:101ED000236038BDC80100200A44914200F1FF335D
:101EE00000D1704710B511F8014B03F8014F914232
:101EF000F9D110BD2DE9F041074614460D4621B930
:101F0000BDE8F0411146FFF74DBC2AB9FFF7DEFBF3
:101F100025462846BDE8F08100F01AF884420646BE
:101F200002D8B4EB500FF4D821463846FFF73AFCFC
:101F3000804608B94546ECE7B4422246294628BF08
:101F40003246FFF7C9FF29463846FFF7BFFBF1E7E6
:101F500051F8043C181F002BBCBF0B58C018704729
:101F6000F8B500BFF8BC08BC9E467047F8B500BF86
:081F7000F8BC08BC9E46704756
:101F7800583A0000256400004F3A0000504C41597F
:101F8800455220582057494E53210000504C415982
:101F98004552204F2057494E532100004452415783
:101FA8002100000053434F524520583A2564204FE2
:101FB8003A256400232D302B2000686C4C006566A0
:101FC8006745464700303132333435363738394182
:101FD8004243444546003031323334353637383998
:081FE80061626364656600009C
:081FF000F0E1FF7F0100000099
:041FF800C501000817
:041FFC00A101000837
:1020000000000240000402400008024001000000FD
:10201000140000200000000090000020F8000020C4
:10202000600100200000000000000000000000002F
:1020300000000000000000000000000000000000A0
:102040000000000000000000000000000000000090
:102050000000000000000000000000000000000080
:04000005080015B525
:00000001FF
